S00F0000427265616B6F75742E733337A8
S11300000010002089240000B9850000B985000093
S1130010B9850000B9850000B9850000B9850000E4
S1130020B9850000B9850000B9850000B9850000D4
S1130030B9850000B9850000B9850000B9850000C4
S1130040B9850000B9850000B9850000B9850000B4
S1130050B9850000B9850000B9850000B9850000A4
S1130060B9850000B9850000B9850000B985000094
S1130070D55C0000B9850000B9850000B985000091
S1130080B9850000B9850000B9850000B985000074
S1130090B9850000392C0000B9850000B98500003D
S11300A0B9850000012E0000DD2D0000B985000097
S11300B0B9850000B9850000B9850000B985000044
S11300C0B9850000B9850000B9850000B985000034
S11300D0B9850000B9850000B9850000B985000024
S11300E0B9850000B9850000B9850000B985000014
S11300F0B9850000B9850000B9850000B985000004
S1130100B9850000B9850000B9850000B9850000F3
S1130110B9850000B9850000B9850000B9850000E3
S1130120B9850000B9850000B9850000B9850000D3
S1130130B9850000B98500007511000071840000C4
S1130140F0B5114A114C124E00F00105E3695F0746
S113015013D40DB9334213D103EA00078F4207D1F8
S11301600B4A1A40002A0CBF00206FF00100F0BDBA
S1130170013AEBD16FF00200F9E74FF0FF30F6E7F8
S11301806FF00100F3E700BF809698000000035071
S1130190020001000B4B70B5D96911F480310DD107
S11301A001244FF48072084E084DF46020462C64FC
S11301B01A61FFF7C5FF3464EC6070BD6FF0010095
S11301C0FBE700BF00000350001003500020035061
S11301D0C0F30C0370B5054623B140F21A2111484F
S11301E000F0A2F84FF400320F4B104C9A6641F61F
S11301F071330122E669E3630D4B0021DA600223C7
S113020065612120236106F48036FFF799FF10B958
S11302102120FFF795FF0122064BDA600EB100237F
S1130220E36370BD1EA30000009000500000035063
S1130230001003500020035070B5134C6061E36953
S11302405B071ED40E4656F8043B8D18A361AE42DC
S11302500BD10423002121202361FFF771FF58B93A
S1130260BDE870402120FFF76BBF08210846FFF767
S113027067FF10B10423236170BD56F8043BA361EA
S1130280E5E74FF0FF30F7E7000003502DE9F843AE
S1130290154682070F46064604D040F266211E48E2
S11302A000F042F8AB0704D04FF41A711A4800F07A
S11302B03BF84FF40032194BDFF868909A6603F567
S11302C01C33DA6902F4803841F67132DA630122B0
S11302D003F58053DA6065B928460122104BDA60D1
S11302E0B8F1000F03D00022A3F50053DA63BDE890
S11302F0F88306F5005404EA0904A41BAC4228BFA1
S11303002C46394622463046FFF796FF0028E4D1B2
S1130310264427442D1BDEE71EA300000090005056
S11303200020035000E0FFFF5FF800F0E3850000C9
S1130330013800D0FCE770472DE9F04FC76997B04A
S11303408346209E08910C92129355EC104B8DED30
S1130350000B7FB9102006F05BFF0246CBF81C00AF
S113036020B9A74BEF21A74806F0EAFEC0E90177C0
S11303700760C760DBF81C30196859B15A6801235B
S1130380584693404A608B6007F030F8DBF81C3025
S113039000221A602B1EB7BF23F000430023012262
S11303A00193A8BF3360019F974BB8BF3260BB4332
S11303B019D142F20F73129A1360C7F31303234344
S11303C000F0DB85219B53B9904B21E0904B0393C4
S11303D00833219A1360039817B0BDE8F08F8B4B54
S11303E003930333F5E79DED007B0022002351ECDA
S11303F0170B8DED0A7B05F0D5FE804650B1012325
S1130400129A1360219B13B1824B219A1360824B81
S11304100393E0E7C7F30A5614AA15A958469DEDBD
S11304200A0B07F06BFA0290002E76D00B9BA6F213
S1130430FF36CDF84C80C3F3130343F07F53DDE95B
S11304400A0143F4401319460022744B05F09CFC46
S113045065A3D3E9002307F09DFD65A3D3E9002339
S113046005F094FC04460D46304605F0DBFD62A31E
S1130470D3E9002307F08EFD02460B4620462946A9
S113048005F084FC04460D4607F0ACFF0022074645
S113049000232046294605F08FFE40B1384605F07A
S11304A0C1FD22462B4605F07DFE00B9013F162F03
S11304B052D85B4B03EBC703DDE90A01D3E9002300
S11304C005F07AFE002849D0013F00231193149BC4
S11304D09B1B5A1E4CBFC3F101030023079245BF67
S11304E00693002306930793002F39DB079B10978D
S11304F03B44079300230993089B092B66D8052BDB
S1130500C5BF043B002401240893089B023B032B32
S113051067D8DFE803F02D3A3859DDE914631E4447
S113052006F23243202BC9BFC3F14003C3F12003B9
S11305309F4006F21243D8BF04FA03F006F1FF36D7
S1130540C4BF24FA03F347EA030005F05BFD01226C
S1130550A1F1F873139276E70123B7E71190B6E798
S1130560069BDB1B06937B42099300231093C3E78E
S113057000230D930C9B002B56DC012399461A464D
S113058004930C920CE00123F3E700230D930C9BDE
S1130590FB1803F1010904934B46012BB8BF012357
S11305A0DBF81C000021042202F114059D423FD90E
S11305B04160584606F0DAFE039000283BD1194BFF
S11305C0024640F2AF11CEE60123DFE70124002307
S11305D00D9408934FF0FF3300229946049312239D
S11305E0CFE701230D93F5E761436F63A787D23FFC
S11305F0B3C8608B288AC63FFB799F501344D33F0E
S11306003DAE000054AE00000000F07F39AE0000A3
S113061030AE0000D1AD0000D0AD00000000F83FC6
S113062050AF0000ADAE00000C9B99460493B7E7B1
S113063001315200B8E7DBF81C30B9F10E0F039A10
S11306401A606FD8002C6DD0002F36DD07F00F0232
S1130650A04BF8054FEA271403EBC20393ED007B8C
S11306608DED0E7B17D59C4B04F00F044FF003085F
S1130670D3E90823DDE90A0107F0B6FDCDE900015D
S1130680954D5CB9DDE90E23DDE9000107F0ACFD11
S1130690CDE900012BE04FF00208F1E7E10709D5AD
S11306A008F10108DDE90E01D5E9002307F072FC29
S11306B0CDE90E0164100835E3E700F007817C42C0
S11306C0844B854D4FF0020804F00F02241103EB14
S11306D0C203DDE90A01D3E9002307F05BFC002330
S11306E0CDE90001002C40F0E580002BD0D1119B16
S11306F0DDE90045002B00F04C810022774B2046B9
S1130700294605F059FD002800F04381B9F1000F96
S113071000F03F81049B002B00F3E480DDE90A3400
S1130720CDE90034159B002B02DB0E2F40F34282EF
S11307300D9A002A40F06782099C0025DDF8188094
S1130740B8F1000F0DD0079B002B0ADD4345069A34
S1130750A8BF4346D21AA8EB03080692079AD31AF5
S11307600793099B0BB30D9B002B00F0A682002C72
S113077000F0A18229462246584606F061FF029AFB
S113078001460546584606F0B1FE0299064658460B
S113079006F02CFE099B1B1B099300F09182099A19
S11307A03146584606F04CFF02900121584606F0A7
S11307B087FE109B0446002B00F084821A460146F3
S11307C0584606F03DFF089B0446012B03DC009BC2
S11307D0002B00F07C820026236904EB8303186954
S11307E008F057FFC0F120001096079B184410F042
S11307F01F0000F09182C0F12003042B40F381829A
S1130800C0F11C00069B034480440693079B0344E9
S11308100793069B002B05DD1A460299584606F0FD
S113082069FF0290079B002B05DD21461A465846B6
S113083006F060FF0446119B002B00F076822146EF
S1130840029808F075FF002880F26F8200230A22C4
S11308500299584606F0ECFD0D9B7E1E0290002B7B
S113086000F05C82002329460A22584606F0E0FD87
S1130870049B0546002B03DC089B022B00F35E82DD
S1130880B8F1000F05DD29464246584606F032FF0E
S11308900546109B002B00F0D0826968584606F08C
S11308A065FD0746002840F07F820D4B024640F26A
S11308B0EF2158E5E20706D508F10108D5E9002340
S11308C007F068FB0123641008350BE74FF00208BA
S11308D00DE700BF50AF000028AF00000000F03F5C
S11308E0ADAE000020460022AC4B294607F052FB77
S11308F07E1E08F10108049CCDE90001404605F084
S113090091FBDDE9002307F045FBA54B002205F030
S11309103DFAA1F15073CDE90E010F93002C3BD1A8
S11309200022A04BDDE9000105F02EFA02460B4639
S1130930CDE90023DDE90E2305F05CFC002840F03E
S11309405781DDE90E2101F10043DDE9000105F0E5
S113095033FC00283FF4E2AE002425460C9BDDF86E
S11309600CA0DE434FF000082146584606F03EFD39
S1130970002D00F0A980B8F1000F05D0A84503D0E0
S11309804146584606F032FD2946584606F02EFDEB
S11309909AE03E464C46B1E7834B03EBC40353E96C
S11309A00201039B1C440D9B002B4AD002460B46BC
S11309B000207E4907F018FCDDE90E2305F0E4F978
S11309C0DDF80CA0CDE90E01DDE9000107F00AFD18
S11309D0054605F027FB024630350B46DDE90001EC
S11309E005F0D2F90AF8015B02460B46CDE9000195
S11309F0DDE90E0105F0FEFB002865D100206C49FD
S1130A00DDE9002305F0C0F902460B46DDE90E01DD
S1130A1005F0F0FB002840F00D81A24500F0EA80CB
S1130A2000225E4BDDE90E0107F0B4FA00225B4BB5
S1130A30CDE90E01DDE9000107F0ACFACDE90001D2
S1130A40C2E7DDE90E2307F0A5FAA046DDF80CA005
S1130A50CDE90E01DDE9000107F0C4FC054605F00F
S1130A60E1FA024630350B46DDE9000105F08CF968
S1130A700AF8015B02460B46A245CDE900234FF07C
S1130A80000223D1494BDDE90E0105F07FF902464E
S1130A900B46DDE9000105F0ADFB002840F0CA80FB
S1130AA000204249DDE90E2305F06EF902460B46AB
S1130AB0DDE9000105F080FB70B1C24608F1FF38A2
S1130AC01AF8013C302BF8D0374655E0334B07F089
S1130AD061FACDE90001BDE7DDE90A34CDE900346E
S1130AE0159B002BFFF628AE0E2F3FF725AE2E4B9D
S1130AF003EBC70393ED007B0C9B002B8DED047B74
S1130B0002DAB9F1000F64D0DDF80CA0DDE900458C
S1130B10DDE904232046294607F066FB07F062FC62
S1130B20064605F07FFADDE9042307F033FA0246AE
S1130B30204606F130040B46294605F025F90AF84B
S1130B40014B039C02460B46AAEB0404A14540F06A
S1130B50828005F01BF904460D46DDE9042305F007
S1130B6049FB002865D120462946DDE9042305F028
S1130B7019FB08B1F3075CD40299584606F036FC19
S1130B80002301378AF80030129B1F60219B002B41
S1130B903FF421ACC3F800A01DE400BF00002440D2
S1130BA000001C400000144050AF00000000E03F73
S1130BB00000F03FA24B03EBC70393ED007B0C9BBB
S1130BC0002B8DED047B9FDAB9F1000F9CDC7FF4E0
S1130BD0C3AE00229B4BDDE9040107F0DBF9DDE93C
S1130BE0002305F0FDFA044600287FF4B5AE3E4626
S1130BF02546B4E0DDE90A34CDE90034159B002B29
S1130C0001DB0E2FD6DD089A012A36DC139A82B353
S1130C1003F23343099CDDF81880069A01215846F3
S1130C201A440692079A1A44079206F049FC0546AC
S1130C3086E53E4653469A4613F8012D392A06D1D5
S1130C40039A9A42F7D13022039901360A701A782E
S1130C5001321A7038E700227B4B07F09BF900221F
S1130C60002304460D4605F09DFA00283FF450AFDA
S1130C7082E7149BC3F13603CCE709F1FF34099BE7
S1130C80A34208DBB9F1000FA3EB04040EDBDDF88B
S1130C9018804B46C1E7099B109AE31A0994DDF8C2
S1130CA0188000241A444B461092B6E7069BA3EB27
S1130CB009080023B1E7029E71E5099A029970E5DB
S1130CC0029672E5089B012B17DC009BABB9019BD4
S1130CD0C3F313039BB9019B23F00046360D36057D
S1130CE036B1069B012601330693079B0133079314
S1130CF0109B002B7FF470AD1096012075E5002643
S1130D00F6E73FF486AD1C33069A1A4498440692DB
S1130D10079A1A4407927CE50346F4E7049B002BE8
S1130D202BDC089B022B09DC27E0B9F1000F1DDC4A
S1130D30089B022B1ADD3E46CDF81090049B002B35
S1130D407FF40CAE21460522584606F071FB01469D
S1130D500446029808F0ECFC00287FF7FFADDDF8AC
S1130D600CA0312301360AF8013BFBE50D9B3E46FE
S1130D70CDF81090002B7FF483AD039F2146029899
S1130D8008F0FAFB039B00F13009049A07F8019B71
S1130D90FB1A9A4240F3CB8000230A220299584658
S1130DA006F046FB0290E9E72A6905F10C010C30D4
S1130DB00232920008F0CBFB01223946584606F075
S1130DC099FC039BA846054603F1010ADDE90323C8
S1130DD013440793009B03F0010309930AF1FF33C3
S1130DE021460298049308F0C7FB4146069000F19F
S1130DF03009029808F09CFC2A46214607465846CA
S1130E0006F0E4FCC268014602B3584606F0EEFA66
S1130E10002F3ADA01220299584606F06BFC21466B
S1130E20029008F085FC002803DC29D119F0010F99
S1130E3026D0B9F1390F1DD132E02846C1E700BFF1
S1130E4050AF000000001440000024400A900298B3
S1130E5008F06EFC0A990C90584606F0C7FA0C9AF2
S1130E605ABB089B53B9099B43B9B9F1390F17D041
S1130E70002F05DD069B03F1310901E0002F2ADA7A
S1130E80DDF810A00AF8019B6EE5089B3B4304D1F2
S1130E90009B03F00103002BBCD0B9F1390F36D10C
S1130EA0049F392307F8013BBA46013F1AF8013C75
S1130EB0392B5AD001333B7056E5002F06DB089BD3
S1130EC03B4306D1009B03F0010313B9002AA1DCC4
S1130ED0D6E7002AE1DC079B57460AF8019C5345F4
S1130EE02ED000230A220299584606F0A1FAA845FA
S1130EF002904FF000034FF00A02414658460BD1CE
S1130F0006F096FA804605460AF1010A66E7DDF81E
S1130F1010A009F10109B5E706F08AFA29468046CE
S1130F2000230A22584606F083FA0546ECE7049BA0
S1130F304FF00008002BCCBF1F460127039B1F4422
S1130F4001220299584606F0D5FB2146029008F08A
S1130F50EFFB0028A8DC02D119F0010FA4D1BA4696
S1130F6017F8013D302BFAD0FEE4039BBB429BD122
S1130F703123039A01361370F6E4219B002B7FF48E
S1130F8025AA014BFFF744BA30AE00000348044BD6
S1130F90834202D0034B03B118477047382C00201A
S1130FA0382C002000000000064B0749C91A89109C
S1130FB048BF0131491003D0044B0BB10148184715
S1130FC0704700BF382C0020382C0020000000009F
S1130FD010B5064C237843B9FFF7D8FF044B13B17F
S1130FE00448AFF300800123237010BDBE1E00200F
S1130FF00000000034B0000008B5054B1BB10549E2
S11310000548AFF30080BDE80840FFF7CDBF00BF3F
S1131010000000000010002034B00000A3F5803A66
S1131020704700BF174B002B08BF134B9D46FFF7BB
S1131030F5FF00218B460F461348144A121A08F094
S11310406DFA0E4B002B00D098470D4B002B00D0AF
S113105098470020002104000D000D48002802D00C
S11310600C48AFF3008006F047F82000290007F091
S113107001FA05F059FA00BF000008000000000062
S11310800000000000100020001000203C27002079
S1131090000000000000000008B503F017FC012860
S11310A00ED10F4B04205A6E4FF480230D49520386
S11310B058BF0D4A4B6601F51041086258BF53668C
S11310C007F0F0FE00F0F0FF07F0EAFE03F030FF57
S11310D007F086FE03F03CFFBDE8084000F0D8BFEF
S11310E0008000500090005000A0005030B51B4D0F
S11310F08FB007AC0FCD0FC495E8070084E8070054
S11311000E2200210DEB020008F008FA4FF48012C1
S1131110134B1448CDE901233E238DF80C303F23B3
S11311208DF80D30104B07AA04932023059340F249
S1131130011301A9ADF818300C4B03F0B9FF0446B4
S113114018B1A4210A4807F04CFA00214FF4E13009
S113115007F003FA20460FB030BD00BF389D0000F1
S11311603400035A64100020BF1E00201810002011
S1131170089D0000014807F022BF00BF6410002052
S113118008B5044807F03EFABDE80840024807F0F5
S113119039BA00BF6C9D0000549D000010B5044690
S11311A007F035FA0128104B0CD19C4203D10F4BA8
S11311B05870987010BD0E4B9C42FBD10B4B1871AC
S11311C05871F7E79C4205D10022084B5A7001225E
S11311D09A70EFE7064B9C42ECD10022034B1A7144
S11311E001225A71E6E700BF6C9D0000482B0020E5
S11311F0549D000038B54FF07E65054C03F0E4FAC9
S11312000FCD0FC495E8030084E8030038BD00BF88
S11312107C10002008B54FF07E6008F06DFDBDE83D
S1131220084018224FF07E60014908F069BD00BFF4
S11312307C1000200122374B70B41A700022364B08
S1131240364E1A603C22364B364DC3F89428364A43
S113125036481268DE61C3F88828354A354E11686D
S1131260354A07EE101AD2ED007AF8EEE77AFDEE71
S1131270E77A17EE902AC3F88C28304AF8EEE77A1A
S1131280B8EEC77A1468C3F890184FF085424FF44B
S11312908071C3ED047AC3ED0B7AC3ED127AC3F8FF
S11312A098481A605A609D601A625E629A63DA63B3
S11312B01D6483ED057A83ED0C7A83ED137AD8608F
S11312C01983986299865864A3F85010C3ED197A6B
S11312D0C3ED207A07EE904A5A659A651A675A67F1
S11312E0174AF8EEE77AC3F88C204FF07E52DD659A
S11312F09D6770BC83ED1A7A83ED217AC3ED257A5C
S11313001866A3F86C10D867A3F88810C3F8902067
S113131000F06EBCDF1E0020301900200000F041F8
S113132094100020CDCCCC3D3C290020000080BF8F
S113133034290020CDCC8C3F3829002040290020BE
S113134000003042002370B5214C1946206892B049
S11313500222806805F028FD002320680222194635
S1131360406805F021FD01AA15461A4B03F1180641
S1131370144618685968083303C4B3422246F7D1A7
S113138018681B222060144C2946206807F095FD3C
S1131390206803F075FE08AA1546104B03F12006D9
S11313A0144618685968083303C4B3422246F7D177
S11313B0186899889B7926222060A180A371294608
S11313C0002007F07AFD064805F0E6FC12B070BD77
S11313D078290020D59D000030290020F19D0000CF
S11313E0849D000038B5134C237823B1124805F0CE
S11313F0B9FC0023237005F0ADFC024640B200287E
S11314000CDD0E4C0D28237801D00A2807D10025C5
S11314100B490C48CD5405F0A5FC257038BD4E2B66
S11314209FBF0749CA5401332370BDE8384005F013
S1131430ABBC00BF4E2B0020299E0000E01E002004
S1131440E11E0020189E000030B585B007F037F883
S113145018B138211A4807F0C4F8002003F0D8FB6B
S113146018B13C21164807F0BCF8164803F038FCC4
S113147018B14021124807F0B4F86FF07F430025FB
S1131480104CC4E9013500F0B3FB204607F0F7F92E
S113149020460D4907F062FC0C4B20461A68511C8B
S11314A01960052301210093CDE90131D2B22B4605
S11314B0074907F066FC05B0BDE8304003F0D0BB37
S11314C02C9E00004C190020C8A3000038190020ED
S11314D0429E000007EE901A0B4BF8EEE77A93ED6C
S11314E0237A6E2377EE877A08490022FDEEC76AD5
S11314F0FDEEE77A4B6078238260C1ED006AC1EDAE
S1131500027ACB6007F012BB941000203C19002033
S1131510F8B500240A26084D084F2B68A34200DCC6
S1131520F8BD052206FB04F102233846114407F0F6
S113153032FA0134F1E700BF442900204C1900209D
S1131540F8B5164C00252646154FD6F88838AB4218
S113155009DC134800F022FDD6F894181048BDE8C1
S1131560F840FFF7B7BF637EA3B1D4ED056A94EDED
S1131570017AD4ED007AFDEEE66ABDEEC77AFDEE9F
S1131580E77A16EE903A17EE102A17EE901A3846BC
S113159007F001FA01351C34D7E700BF941000208E
S11315A04C19002037B505460F4C204607F067F963
S11315B0284600F01FFD00F0F9FBFFF7C1FFFFF71D
S11315C0A7FF2046094907F0C9FB0523012220464D
S11315D0CDE90032064946230F2207F083FB03B00E
S11315E0BDE8304003F03CBB4C190020C8A3000008
S11315F05B9E00002DE9F34107460025FFF71AFE24
S11316006FF07F431B4C4FF001082046C4E90135BD
S113161007F035F91849204607F0A0FB0A230822F1
S1131620CDE9003815491E23204607F05BFB204610
S1131630114907F093FB124EAF420BBF00226FF02B
S11316407F426FF07F430023C4E90123CDF8048077
S1131650B37B31460093727B1E232046013507F08D
S113166041FB032D06F10F06E6D102B0BDE8F041BF
S113167003F0F6BA4C190020F8A60000639E00009F
S1131680FF2B00202DE9F047804690B0264889467C
S1131690002505F067FB6FF07F43244C01272046AB
S11316A0C4E9013507F0EBF82149204607F056FB61
S11316B00A230822CDE900371E491923204607F0E2
S11316C011FB20461C4907F049FB1C4EDFF870A0B3
S11316D0A8456FF07F424FF0000322D1C4E90132E4
S11316E051464A4603A805F047FC0197737D05223D
S11316F0009320460A2303A907F0F4FA0197737DA7
S113170031460093327D1E232046013507F0EAFA64
S1131710052D06F11606DBD103F0A2FA10B0BDE8E0
S1131720F087C4E90123E9E76C9E00004C1900200E
S1131730F8A600007E9E0000C8A30000912B0020A4
S11317409D9E000070B500220446144B1D68144B86
S1131750954218DC134805F005FB2168124805F092
S113176001FB6168114805F0FDFAA168104805F015
S1131770F9FAE1680F4805F0F5FA21690E48BDE869
S1131780704005F0EFBA5E6818680132B042BCBF21
S113179054F82260C3E900600433D9E73419002007
S11317A07C100020879E0000A09E0000B39E0000D5
S11317B0C69E0000D99E0000EC9E00002DE9F04773
S11317C06FF07F430025304C86B02046C4E90135D4
S11317D007F055F82D49204607F0C0FA0A230122E4
S11317E02B49CDE90032204614230B2207F07AFA64
S11317F02046284907F0B2FA274FDFF8A490DFF813
S1131800A4802E4601352B464A46042103A805F040
S11318107FFB4246062157F8043B04A805F078FBF9
S113182003A807F0A1FE4FF0010A0236C6EB061624
S113183002460A2303A92046CDE9006A07F052FABA
S113184004A807F091FE46230246CDE9006A20462B
S113185004A907F047FA052DD3D100256FF07F4680
S11318607323C4E90156132200930C490A23CDF8CB
S113187004A0054807F036FAC4E9016506B0BDE8DE
S1131880F04703F0EDB900BF4C190020F8A60000A2
S1131890FF9E0000C8A300007C100020109F0000E1
S11318A00C9F00009D9E00002DE9F3410746002592
S11318B0FFF7C0FC6FF07F43194C4FF0010820463E
S11318C0C4E9013506F0DBFF1649204607F046FA65
S11318D01E230922CDE9003820461923124907F0B6
S11318E001FA124EAF420BBF00226FF07F426FF03D
S11318F07F430023C4E90123CDF80480737D31467E
S11319000093327D1E232046013507F0EBF9032DA9
S113191006F11606E6D102B0BDE8F04103F0A0B925
S11319204C190020F8A60000259F00004F2B002032
S11319301FB50C4C204606F0A2FF20460A4907F0CA
S11319400DFA05230122CDE90132084A009320460D
S113195000231278064907F014FA04B0BDE81040D9
S113196003F07EB94C190020C8A3000038190020E8
S11319702F9F00002DE9F047874CFFF733FD874F79
S113198026783D78042E00F20481DFE806F0033562
S1131990BC529300DFF844823DB1FFF72BFC0023D7
S11319A07F48C8F8003005F0F7F97E4BD8F80020DE
S11319B0997851B100219970597831B1012A17D021
S11319C0022A17D00AB901212170597949B100219D
S11319D059711B792BB1531C022A18BF1946C8F838
S11319E0001098F80000FFF705FEAE421ED146E055
S11319F00321E9E70421E7E7012D6A4D07D12B799B
S1131A00687803B10220BDE8F047FFF7CBBD664814
S1131A1005F0C2F9654B6648196805F0A3F92B79FE
S1131A206878002B18BF0220FFF7BCFD23783B70B9
S1131A3025E0032DDFF8A88105D000235D48C8F810
S1131A40003005F0A9F9574BD8F8000099785A4AA4
S1131A50F1B1002193F801C09970BCF1000F17D0C7
S1131A60042815D8DFE800F0030D0F1113005349C3
S1131A700B6813600133052B00DD01230B60BDE807
S1131A80F0874F49F4E74F49F2E74F49F0E72170F7
S1131A90597949B1002159711B792BB1431C042890
S1131AA018BF1946C8F80010116898F80000FFF72D
S1131AB0E9FD9AE7042DDFF8EC80DFF8289109D1DD
S1131AC098F80230D9F8001083B9BDE8F0473F48D0
S1131AD0FFF774BE3E4805F05FF998F802302BB961
S1131AE0D9F800103948FFF769FE9FE7002398F8FA
S1131AF0012088F8023002B12370D9F8001033486D
S1131B00FFF75CFE71E7022DDFF8D8A0DFF8D8906C
S1131B10DFF8D88012D00022D9F800302D480133E4
S1131B20C8F80020C9F8003005F036F92A4805F055
S1131B3019F9DAF800102548FFF704FE0021D9F856
S1131B400030D8F80020052B164BC8BFC9F8001088
S1131B509878CAF8001048B15878997030B1012AC1
S1131B6015D0022A01D00AB901212170597949B14D
S1131B70002159711B792BB1531C022A18BF194635
S1131B80C8F8001098F80000FFF78EFE2DE7042136
S1131B90EBE7FFF7CDFE28E7311F00202C2C0020B7
S1131BA0359F0000482B0020619F0000442900203D
S1131BB03E9F00004A9F000084190020382900201D
S1131BC0402900203C290020342900207C100020DA
S1131BD0529F00005E9F0000669F00008019002055
S1131BE07C1900208819002034190020781900205D
S1131BF0F0B51420002101270F4D2B460C4602227C
S1131C00A0F10806C3F8A82002F1080C0A327A2AC7
S1131C10C3E92D04C3E92BC683F8A47004F10104BD
S1131C2003F11803EED10C31482905F5907500F144
S1131C300A00E2D1F0BD00BFB41100202DE9F0414B
S1131C400025544C2DED068B2646B0EE408AF0EE6E
S1131C50608A0AEE100A0AEE901A2F46DFF84881CD
S1131C60D6F88838AB4201DC00204FE094ED017ACD
S1131C70D6ED057A77EE277AF4EEE87AF1EE10FAEB
S1131C80C0F28380F8EEEA9A79EEA89AB4EEE97A83
S1131C90F1EE10FA79D894ED007AD4ED057A77EE66
S1131CA0277AF4EEC87AF1EE10FA6EDBB8EECA9A2F
S1131CB039EE089AB4EEC97AF1EE10FA65D84046C6
S1131CC005F06AF8237E002B60D194ED017AD4EDFF
S1131CD0057A77EE276AF4EE686A0123F1EE10FACA
S1131CE0237617D1D4ED036AF5EEC06AF1EE10FA4B
S1131CF010DD294805F050F81C2303FB0563D3EDE0
S1131D00037AF1EE677AC3ED037A0120BDEC068B0A
S1131D10BDE8F081F4EE479AF1EE10FA08D194EDA3
S1131D20037AB5EEC07AF1EE10FA01D51B48E1E76B
S1131D3094ED007A77EE877AF4EE487AF1EE10FAB1
S1131D4013D1D4ED027AF5EEC07AF1EE10FA0CDD7F
S1131D50134805F021F81C2303FB0563D3ED027A35
S1131D60F1EE677AC3ED027ACFE7D6ED007AB4EEEE
S1131D70679AF1EE10FA09D1D6ED027AF5EEC07A3F
S1131D80F1EE10FA02D50748E3E7277601351C3453
S1131D9066E700BF941000208D9F0000A79F0000FD
S1131DA0C49F0000DF9F00007E9F00002DE9F04FDC
S1131DB06C4D2DED028B2C4600266B4F87B0D5F869
S1131DC08838B34204DC07B0BDEC028BBDE8F08F69
S1131DD0637E002B00F0B980D4ED046A94ED027A9E
S1131DE0D4ED007A46EE877A94ED036A94ED017A95
S1131DF0F5EEC07A06EE867AF1EE10FAC4ED007ABA
S1131E0084ED017A9FED598A04D9F4EEC87AF1EE93
S1131E1010FA21DB564804F0BFFFA86804F014F957
S1131E2080466868894604F00FF9CDE90401286802
S1131E3004F00AF9CDE90201E86804F005F9424624
S1131E40CDE900014B464B4804F08CFFD4ED027AF7
S1131E50F1EE677AC4ED027AD4ED017AF5EEC07A38
S1131E60F1EE10FA21D8444804F096FFA86804F073
S1131E70EBF880466868894604F0E6F8CDE9040189
S1131E80286804F0E1F8CDE90201E86804F0DCF820
S1131E904246CDE900014B46364804F063FFD4EDD9
S1131EA0037AF1EE677AC4ED037AD4ED017AF4EEA5
S1131EB0C87AF1EE10FA0EDD0022304930480B6882
S1131EC0627601330B60D5F888188B4204BF2D4B22
S1131ED01A7004F061FF0A21DFED2B0A95ED230A45
S1131EE0B5F89408FFF7AAFEAB464FF0000AD846AF
S1131EF04FF0000998F8A410C9B1D8ED2D7A082143
S1131F00F8EEE70AD8ED2B7A0846B8EEE70AFFF7B1
S1131F1095FE60B100211D4B88F8A410396818683B
S1131F201B4B0131396043F82010FFF773F909F1B5
S1131F300109B9F10C0F08F11808DBD10AF1010A03
S1131F40BAF1070F0BF5907BD1D10E4B1B7833B947
S1131F500222104B1A70104A1368013B13600136B9
S1131F601C342CE794100020881900200000004342
S1131F70FB9F000015A0000047A0000030190020BE
S1131F805FA00000DF1E00200000DC4234190020A6
S1131F907C100020311F0020442900202DE9FF413E
S1131FA000250646DFF8488085604446002794F8FB
S1131FB0A4307BB1D4F8A83069460093D4F8B0308B
S1131FC030460193D4F8AC300293D4F8B430039380
S1131FD006F0ACFD01370C2F04F11804E7D10135EC
S1131FE0072D08F59078E0D104B0BDE8F08100BF7A
S1131FF09410002001281ED0022803D0D0B91F4B12
S1132000587070471E4BD3ED237AF5EEC07AF1EE8B
S113201010FA0FD94FF04042C3F89420194AC3F87C
S11320209020194A92ED007AB8EEC77A77EEC77A13
S1132030C3ED237A7047124BDFED146AD3F894286A
S113204093ED237A07EE902AF8EEE77A77EE877A13
S1132050F4EEE67AF1EE10FAECDA4FF08042C3F8CF
S113206094204FF07E52C3F89020074AD2ED007AB4
S1132070F8EEE77A77EE877ADAE700BF482B00209C
S113208094100020000080BF40290020000000437D
S113209008B5044806F0ABFE06F0CCF9BDE80840EC
S11320A000F054B974AA0000014806F0A0BE00BFB5
S11320B074AA00002DE9F0430646284D89B001AC0E
S11320C0884617460FCD0FC495E80700244B3568A2
S11320D084E807009D423FD0224CA5420CBF012456
S11320E04FF0FF34640104F1A04404F570341E4839
S11320F0D4F81C9606F07BFE706806F078FE717BBF
S1132100307B0023042202F069F90422717A307AC8
S1132110002302F063F90123284601A98DF8123047
S1132120CDF80C80ADF8147002F034FC0020727A03
S1132130337A09F0040943EA0243C4F83436727B63
S1132140337B43EA0243C4F8303649F01803C4F839
S11321501C3609B0BDE8F0830024C3E77CA000006E
S113216000C005500000065074AA000013B50446D0
S113217003F06EFC00230122217BCDE900324900EB
S1132180B0FBF1F1024A034806F078FF02B010BD3B
S113219099210000A01900200122014B1A61704707
S11321A000F00350F7B540260E4C054604F5805365
S11321B01E67407B03F0B8FD04230B4F02220DF190
S11321C006013846ADF8063006F0D6F9384606F072
S11321D0E4F9A87B03F0A8FD002004F50054266769
S11321E003B0F0BD00C003504829002070B5064676
S11321F0124806F0FCFDB16800221148FFF75AFFAF
S1132200002304220621022002F0E8F800233546C8
S11322100C4C04221946184602F0E0F80FCD0FC406
S113222001222B6830462360074B1A70FFF79EFF8C
S11322303046FFF7B7FF002070BD00BF74AA00004E
S1132240482900208C190020321F00202DE9F74F67
S11322501446402206889846037901345E43244B91
S1132260A4B21A670546407B0F4603F05DFD2302C6
S113227043F0010302221F480DF10601ADF80630B8
S11322804FF0000B06F078F901342402DFF8649073
S1132290F610A4B208F1FF3AC3450FD1154806F071
S11322A07CF9A87B03F040FD4022134B11481A67C8
S11322B006F078F9002003B0BDE8F08F39463246C5
S11322C0484606F059F9DA450CBF4FF6FF7344F05F
S11322D0FF03022248460DF1060104F58074ADF8AF
S11322E00630374406F048F90BF1010BA4B2D3E7EA
S11322F000D003504829002000E00350034B044859
S11323001B78002B08BF0020704700BF321F00203D
S11323108C19002030B5064D87B001AC0FCD0FC429
S11323202B6801A82360FFF761FF07B030BD00BF31
S113233098A000001022014B1A61704700D003508E
S11323401022014B1A61704700E003502DE9F0415F
S1132350404D88B001AC0FCD0FC495E8070084E868
S113236007000124DFF800813B4806F040FD3B4FA5
S1132370404606F03CFD3A4B384601A903938DF8DC
S1132380124002F007FB234604220021022002F03F
S113239025F8224621460023022002F01FF80221DC
S11323A023460846042202F019F804222346114663
S11323B0002002F013F84FF002132A4D0226C5F84C
S11323C03036A3F58033C5F82C361C23C5F83466A3
S11323D04FF44870C5F81C3603F0A6FC1420FFF730
S11323E0AFFF03F0A1FC2320FFF7A4FF03F09CFC44
S11323F0B9213846FFF7A4FF06F028FAFFF79AFF41
S1132400002330461A46194601F0E8FF002321460E
S11324101A46304601F0E2FF234631463046002298
S113242001F0DCFF002223461046042101F0D6FF10
S1132430384602F077FA00234046C5F83036C5F82E
S11324402C36C5F83436C5F81C3606F0D3FC08B073
S1132450BDE8F081ACA0000074AA000000C00550E3
S113246000127A0000C003506CAA00000348044A1A
S11324700449121A921006F0A0B800BF40010000EF
S1132480300300004027002008B500F02FF8FFF7C4
S1132490EDFF124B12498B4212D30020114B12490B
S11324A08B4218D3FEF7BEFD186850F822405868D6
S11324B040F82240013298688242F5D30C33EAE7AF
S11324C00022F8E71C6844F8220001325C68A2424A
S11324D0F8D30833E4E70022F8E700BF3CB000007B
S11324E048B0000048B0000048B000004FF400417C
S11324F0134B144A70B59A60D3F88820124D42F4F5
S11325007002C3F88820114A05F5005491664FF013
S1132510FF3222664FF6DF7262660222C3F8D020D1
S1132520BFF34F8FBFF36F8F4FF44036032002F099
S113253071FD0320E66002F03BFD2E6170BD00BF1B
S113254000ED00E000000000008000440090005016
S1132550014B1868704700BF5C290020014B1860CC
S1132560704700BF5C290020084B1B6F03F0070372
S1132570022B04D0032B05D0012B05D0FEE7044B1E
S113258018687047034BFBE703487047008000500E
S11325905C29002064290020002D310108B5FFF7D3
S11325A0E3FF054B1B6FC3F303330133B0FBF3F0BD
S11325B0024B186008BD00BF00800050582900205D
S11325C00048704700B4C404014B1868704700BF4A
S11325D064290020054B1860054B1B6F03F00703AB
S11325E0032B01D1FFF7DABF704700BF6429002035
S11325F00080005000487047002D3101014B1868DD
S1132600704700BF60290020032838B504460D46F2
S113261005D80C4B33F81030CB40DB0704D440F220
S1132620CF31094805F0DDFF1422302313FB0423C6
S113263003F1A04303F570331868E84000F001008B
S113264038BD00BF82A10000C8A0000073B50468B3
S11326500546284806F0CBFB002301226179207946
S113266001F0BCFE61792079FFF7CEFFB0FA80F06B
S1132670A3794009022B20701ED106F05FF81E4A90
S11326802B466179207900F03FFBFF2802466079F0
S113269015D12A46184900F06FFBFF28054603D1DF
S11326A08621164805F09DFF012361792079CDE943
S11326B000332A4601F022FE002002B070BD01233F
S11326C02679014600933046002301F00DFF2A4687
S11326D00949607900F050FBFF28054603D1992190
S11326E0064805F07EFF0022012361792079CDE9B7
S11326F00023DEE774AA00001986000039A1000057
S113270013B500242948019406F071FB0123042227
S11327100321204601F062FE204606F088F80122DB
S1132720234B0520C3F8442401A906F05BFB0028D1
S113273039D1204BD3F8F02042F00102C3F8F02045
S1132740D3F8FC2042F08072C3F8FC201A4AA3F5A7
S11327505D431A60019B194A03F5D52303F2FC4338
S1132760B3FBF2F3164A013B13610223C2F8F030C3
S11327704FF48073C2F804334FF06043114AC3F836
S1132780B02F114AC3F8802ED3F8002E42F4807281
S1132790C3F8002EFF2283F82020D3F8002E22F461
S11327A08072C3F8002E02B010BD00BF74AA0000EE
S11327B000D0035000ED00E0FF030040F8590D0085
S11327C0000004E055CEACC5090001004FF06043A1
S11327D0D3F8802E30B5D20715D501240B4D844093
S11327E0D5F8FC2042F08072C5F8FC20D3F8002E06
S11327F02243C3F8002E53F82020002AF0D003F817
S11328002010002030BD1120FCE700BF00ED00E0E7
S11328102DE9F04F9A46564B85B01B7806460F4675
S11328201546DDF83C909DF844B0DDF85080002B4F
S113283000F09780072A00F296800E9B002B00F090
S11328409280B9F1000F00F08E80129BB3F5006FF7
S113285000F38980012803D1109B002B00F08380B2
S1132860444B03EB05131B7B002B7ED0424C102200
S11328700021684606F052FE04EB45141022A7BB63
S11328803946204606F04AFE43F210036380BBF14A
S1132890000F03D1E37843F00303E370364A0E9B41
S11328A002EB451CCCE90193129B6901581E9DF86B
S11328B04C30C0F30A0003F003039B0643EA001EF6
S11328C053582E48012E00EA03004EEA0003CDF8C7
S11328D000A0535017D0B8F1000F2ED19CF802304D
S11328E068F304138CF8023027E00021204606F038
S11328F015FE4FF444736380BBF1000FCED1E3782F
S113290043F03003C9E713230CF1100ECCF80C305C
S11329109CE80F008EE80F006FF00301DCF81C2028
S1132920109B61F39F02012FCCF81C20CCF81430CB
S113293003D1CCF81890CCF8043000270D4A2901B3
S113294002EB051342F80180159A28465A6069463D
S113295022469F605E7301F075FE384605B0BDE8FF
S1132960F08F0748FAE70748F8E70748F6E700BF9B
S1132970331F0020C01A0020C01900200F80FFF36D
S1132980028000F0018000F0078000F038B5124B9F
S113299005461B78DBB1E0B105F02BFE0F4A00239E
S11329A01146147B54B92B6001251A0101EB031362
S11329B01D738C5005F023FE204638BD0133082BCF
S11329C002F11002EDD105F01AFE0548F5E70548BD
S11329D0F3E70548F1E700BF331F0020C01A0020C9
S11329E0048000F0028000F0018000F038B505F0AA
S11329F000FE002305460B4A147B6CB90133082BF7
S1132A0002F11002F8D101F09FFD074B28461C701B
S1132A1005F0F5FD204603E0284605F0F0FD0348E7
S1132A2038BD00BFC01A0020331F0020058000F00D
S1132A300D4B10B51B78044693B1072812D805F046
S1132A40D8FD0A4B03EB04131A7B2AB100241C7330
S1132A5005F0D5FD204610BD05F0D1FD0448FAE788
S1132A600448F8E70448F6E7331F0020C01A0020A2
S1132A70068000F0028000F0018000F0154B13B5D1
S1132A801868002301908DF8043005F0B2FD124B54
S1132A901C7824B105F0B3FD104802B010BD01222A
S1132AA01A7005F0ACFD0E4B01A81C731C7783F85B
S1132AB02C4083F83C4083F84C4083F85C4083F816
S1132AC06C4083F87C4008238DF8073001F072FDD8
S1132AD02046E2E78AA10000331F0020038000F0B3
S1132AE0C01A00200A4A08B512785AB107280BD830
S1132AF0084A02EB00131B7B43B1002101F03AFDAD
S1132B00002008BD0448FCE70448FAE70448F8E755
S1132B10331F0020C01A0020028000F0018000F062
S1132B20078000F00A4A08B512785AB107280BD872
S1132B30084A02EB00131B7B43B1012101F01AFD8B
S1132B40002008BD0448FCE70448FAE70448F8E715
S1132B50331F0020C01A0020028000F0018000F022
S1132B60078000F00A4A08B5127852B107280AD83B
S1132B70084A02EB00131B7B3BB101F0E7FD002088
S1132B8008BD0548FCE70548FAE70548F8E700BF33
S1132B90331F0020C01A0020028000F0018000F0E2
S1132BA0078000F00D4B1B7893B1072812D889B128
S1132BB00B4B03EB00131B7B73B10A4B1A6D012300
S1132BC08340134214BF0123002300200B7070477D
S1132BD0054870470548704705487047331F002073
S1132BE0C01A002000000450028000F0018000F0B0
S1132BF0078000F00B4A10B512780C4662B1072822
S1132C000CD859B1084A02EB00131B7B43B101F005
S1132C10B9FD2070002010BD0448FCE70448FAE721
S1132C200448F8E7331F0020C01A0020028000F097
S1132C30018000F0078000F0184B2DE9F0411F6D72
S1132C405B6D1F4000D5FEE701260025144CDFF81C
S1132C505880374218D02368C8F85060A3B1A168DF
S1132C60284601316268A1609847637B012B0BD130
S1132C7050B90C4B03EB45131A7B60F341021A73F2
S1132C801A7F60F341021A770135082D4FEA460690
S1132C9004F11004DDD1BDE8F08100BF0000045050
S1132CA0C01A0020C01900200020045070B504464A
S1132CB001250B4E04B970BD94FAA4F0B0FA80F06B
S1132CC005FA00F306EB001224EA03045368002B10
S1132CD0F0D0117B11B191689847EBE79847E9E789
S1132CE0401B002038B505460C4605F082FC002246
S1132CF0044B03EB05135C601A73BDE8384005F020
S1132D007EBC00BF401B0020F8B504460D461746A4
S1132D101E4605F06EFC1CB9052D18D0FF241FE0DB
S1132D20012C05D1012D1FD0032DF7D104240EE071
S1132D30022C07D1052D19D0072D19D0002DEDD166
S1132D40062404E0032CE9D1022DE7D10924094922
S1132D5004F1100301EB03110123C1E901760B73A4
S1132D6005F04DFC2046F8BD0324F0E70724EEE708
S1132D700824ECE7401B0020F8B505460E4617462C
S1132D8005F037FC134B2C46D3F8242405F0FC0142
S1132D9022FA05F3DB0712D500230133DBB2042B3F
S1132DA004D1FF2405F02BFC2046F8BDEC1804F0F8
S1132DB003040C4422FA04FC1CF0010FEDD1FF2C97
S1132DC0F0D00122044B03EB0413C3E901671A7327
S1132DD0E8E700BF00C00350401B0020074BD3F8B6
S1132DE02404D3F8202403F50053104000F0553098
S1132DF020F05020C3F82004FFF758BF00C0035050
S1132E00074BD3F82404D3F8202403F500531040CF
S1132E1000F0AA3020F0A020C3F82004FFF746BF3A
S1132E2000C00350044BD3F88420D206FBD4D3F85B
S1132E308400C0F3811070470040005008B5334B44
S1132E4098424FD027D8324B984245D017D8314BAF
S1132E5098423ED00AD838B12F4B984239D041F22B
S1132E60A6312E4805F0BDFB002034E02C4B9842DF
S1132E702FD02C4B9842F2D12B4B586E2BE02B4B7E
S1132E8098422CD003F5371303F5D8639842E6D162
S1132E90254B986F1FE0264B98422FD00CD8254B1A
S1132EA0984223D0244B984224D0244B9842D6D124
S1132EB01D4BD3F884000EE0214B984222D003F539
S1132EC0740303F510539842C9D1174BD3F89800F3
S1132ED001E0154B986D08BD134B186FFBE7124BBF
S1132EE0586FF8E7104BD3F88000F4E70E4BD3F893
S1132EF08800F0E70C4BD3F88C00ECE70A4BD3F8CE
S1132F009000E8E7084BD3F89400E4E780BA8C011A
S1132F10405DC60080841E0040420F008EA1000068
S1132F2000093D00C0CF6A000080E00F0024F400D7
S1132F30007E560380D54302006CDC020048E801A1
S1132F400090D00338B5104B0546D3F820310C4619
S1132F5003F00303022B0BD0032B0DD0012B0FD155
S1132F60FFF7F6FA052305B1286004B1236038BDE4
S1132F70FFF72AFB0323F6E7FFF73CFB0223F2E704
S1132F8001230020EFE700BF00800050F7B50027C1
S1132F90114B0197D3F88041064604F00304012C39
S1132FA00D4608D0022C12D041F2D1310B4805F065
S1132FB018FB3C4604E0394601A8FFF7C3FF0F2481
S1132FC00EB1019B336005B12C6003B0F0BDFFF777
S1132FD011FB0190F4E700BF008000508EA10000B7
S1132FE038B51A4B0546D3F824010C4600F0070007
S1132FF0062821D8DFE800F0280410181C0C14005F
S1133000FFF7A6FA052305B1286004B1236038BD93
S1133010FFF79EFA0623F6E7FFF7D6FA0323F2E753
S1133020FFF7D2FA0423EEE7FFF7E4FA0223EAE714
S113303005F0CFFA0723E6E7054840F6C87105F026
S1133040D0FA00231846DEE70123DCE700800050B5
S11330508EA1000038B5104B0546D3F840310C461C
S113306003F00303022B0BD0032B0DD0012B0FD144
S113307005F0B1FA092305B1286004B1236038BD15
S1133080FFF7BCFA0823F6E705F0A8FA0B23F2E7EA
S113309001230020EFE700BF0080005038B5164B35
S11330A00546D3F800020C4600F00700042819D89E
S11330B0DFE800F020030B0F130005F08CFA09235E
S11330C005B1286004B1236038BDFFF797FA0823DF
S11330D0F6E705F083FA0B23F2E7FFF75FFA0E2316
S11330E0800AEDE7054841F28F4105F07AFA0023A2
S11330F01846E5E70123E3E7008000508EA10000B5
S113310038B5124B0546D3F840320C4603F003039E
S1133110022B0BD0032B0DD0012B0FD105F05BFA42
S1133120092305B1286004B1236038BDFFF766FAAE
S11331300823F6E705F052FA0B23F2E7044841F2BC
S11331401A4105F04EFA00231846EAE700800050C1
S11331508EA1000038B5104B0546D3F860310C46FB
S113316003F00303022B0BD0032B0DD0012B0FD143
S113317005F031FA092305B1286004B1236038BD94
S1133180FFF73CFA0823F6E705F028FA0B23F2E7E9
S113319001230020EFE700BF0080005010B40F4C63
S11331A00B46D4F8204204F00304012C0ED0022C68
S11331B010D008B1002101600BB100221A6040F662
S11331C0F27107485DF8044B05F00BBA5DF8044B47
S11331D0FFF7B8BE5DF8044BFFF73CBF008000501A
S11331E08EA10000B0F5207F10B534D009D8B0F519
S11331F0007F2AD003D898B1B0F5C07F10D0002446
S113320021E0B0F5607FFAD1154BD3F88030C3F3D9
S113321001149B0617D5032C15D040F296210FE01C
S11332200F4B1C6F230B13F00E0FC4F303340AD09F
S1133230072C08D00F2C06D0032C04D040F2862192
S1133240084805F0CEF9601C10BD054BD3F890403A
S1133250C4F30464F7E7024B1C6FC4F38024F2E761
S1133260008000508EA100004FF400320E4B10B5C8
S113327004469A660020FFF7B5FF604341F67132B9
S11332800A4C0B4BA04294BF00200120D969DA6399
S11332909A6822F4401242EA00529A60CA0344BF78
S11332A00022DA6310BD00BF00900050005A620291
S11332B00000035070B5460904460D460ED140F295
S11332C033310D4805F08DF9334604F01F047DB108
S11332D003F580530122A2401A6070BD012E05D06F
S11332E0064B074A022E18BF1346EEE7054BECE7E0
S11332F003F50053EEE700BF8EA100006880005084
S11333006082005064800050002330B5802885B06E
S11333100446019374D02AD8002877D0A0F1200461
S1133320412C32D8412C30D8DFE804F0707370732C
S1133330888888887373923FA8653F7373732F2FAF
S11333402F2F2F2F8D57737373B2AD732F2F2F2FF2
S11333502F2F2F2F2F2F2F2F2F702F707070882F1C
S11333602F2F2F2F2F2F2F2F2F2F2F2F7070B0F5A0
S1133370806F63D024D8B0F5007F55D00BD8B0F55A
S1133380807F6AD0B0F5C07F40D04FF4936143484A
S113339005F027F937E0B0F5607F45D0F5D8B0F5F2
S11333A0207F36D0B0F5407FEFD1FFF7F7F8044621
S11333B04FF42070FFF716FFB4FBF0F4640831E01B
S11333C0B0F5C06F5AD00DD8B0F5A06F3BD0B0F5B2
S11333D0B06F3DD0B0F5906FD7D1002101A8FFF7B1
S11333E0FFFD10E0B0F5E06F4DD0B0F5F06F4FD0B9
S11333F0B0F5D06FC9D1002101A8FFF74FFE02E05C
S1133400FFF7B2F80190019805B030BDFFF7C6F898
S1133410F8E7FFF7C3F804464FF42070FFF7E2FE25
S1133420B4FBF0F40194EEE7FFF79EF8054620465E
S1133430FFF7D8FEB5FBF0F50195E4E7002101A8FC
S1133440FFF780FDDFE7002101A8FFF7A7FEDAE719
S1133450002101A8FFF79AFDD5E702934FF0E0237E
S11334601B695B0705D5FFF799F80290029B01934E
S1133470C9E703A902A8FFF7EDFDF7E7002101A8BA
S1133480FFF7E8FDBFE7002101A8FFF739FEBAE71F
S1133490002101A8FFF75EFEB5E700BF8EA1000082
S11334A008B58020FFF730FF034B98429EBF4FF4CE
S11334B08032024B1A6708BD005A620200A0005015
S11334C01FB50023B0F5807F01937FD027D838281B
S11334D000F09C800BD82438092810D809280ED86D
S11334E0DFE800F06F6F6F6F0D0D670D36855228A2
S11334F067D007D83D283AD03E2800F08C8040F2AF
S11335007D5152E08028FAD1454B1B6F03F007032D
S1133510013B032B47D8DFE803F044413F75B0F586
S1133520D06F64D019D8B0F5A06F6FD00AD8B0F5B9
S1133530806F46D0B0F5906FE1D1002001A9FFF76C
S11335404FFD3AE0B0F5B06F33D0B0F5C06FD6D1CF
S1133550002001A9FFF77EFD2FE0B0F5006FECD04D
S11335600AD8B0F5E06F56D0B0F5F06FC7D100209F
S113357001A9FFF7EFFD20E0B0F5086FBFD1284B9C
S1133580D3F8003103F00303022B35D0032B37D0DB
S1133590012B39D1FFF718F8032300E00523019329
S11335A00BE00223FBE740F2CA411E4805F019F87C
S11335B003E0002001A9FFF7E9FC019805B05DF8DC
S11335C004FB002001A9FFF7BDFCF6E702934FF0CE
S11335D0E0231B695B0705D5FEF7E0FF0C2303938B
S11335E0039BDCE703A902A8FFF734FDF8E70020FA
S11335F001A9FFF753FDE0E7FFF700F80823CEE742
S113360004F0E7FF0723CAE70123C8E7002001A964
S1133610FFF7C4FDD1E7002001A9FFF771FDCCE756
S1133620008000508EA100004FF48032074B0849FF
S1133630586E03F580535A660B6A23F001030B623C
S1133640C3035CBF034B5A66704700BF0080005041
S113365000C0075000A00050F8B5036804460F2BC3
S113366004D940F677316C4804F0BBFF63680F2B34
S113367004D940F67A31684804F0B3FFA3680F2BED
S113368004D940F67D31644804F0ABFF237B0F2B53
S113369004D94FF43861604804F0A3FF637B0F2B17
S11336A004D940F683315C4804F09BFFA37B3F2B95
S11336B004D940F68631584804F093FFE37B3F2B4E
S11336C004D940F68931544804F08BFF2369032B55
S11336D004D940F68C31504804F083FF6369032B0E
S11336E004D940F68F314C4804F07BFFE369012B89
S11336F004D940F69231484804F073FF8020FFF764
S1133700DFFE032800F087804FF40022434B0221A0
S11337105A6645F60E03424AC2F88030414B99621C
S1133720012103F580539962936DD903FCD4D4E944
S113373000131B0543EA0163E17B94F820500B431B
S1133740217BE77E43EA0143617B6D0143EA013358
S1133750A17B43EA811313619169D4E904031B0635
S113376043EA806301F000410B43A17E94F82300F7
S11337700B43217E43EA0143617E43EA01239361C3
S1133780136AE66923F00D0394F8221043EA8703D1
S1133790002E2DD11362966A94F8213045EA031362
S11337A026F033052B4343F0010393621E4D1C4B5B
S11337B09A6D35EA0202FBD102221A4DAA621A65F9
S11337C09A6D5200FCD41A69A56822F4700242EA88
S11337D005521A614FF00042124B9A6119B9022244
S11337E003F580539A6278B90122104B9A620BE078
S11337F0334343F008031362936A23F03303034310
S11338002B4343EA4103936294F824301BB1044BE5
S1133810074AC3F88020F8BD8EA100000090005034
S113382000C0005000D000500300014000E00050F0
S1133830F1A7FFFF014B93F900007047341F0020EC
S1133840436810B5072B044604D940F6D3512A48DF
S113385004F0C7FEA368032B04D940F6D5512648CB
S113386004F0BFFE2378032B04D940F6D751224835
S113387004F0B7FE94F90130002B04DA40F6D95174
S11338801D4804F0AEFE4FF480011C4A6378516673
S11338904FF4D151022002F5B832516218494F2B2E
S11338A048604FF0010028BF4F2301F58051486064
S11338B01169C903FCD4217843EA01235361D4E993
S11338C001131B0143EA0123617B0B43217B43EA80
S11338D041039360E37BA17B1B0143EA4113617CB9
S11338E00B43217C43EA41035360A37C13B16FF47F
S11338F0D153536210BD00BF8EA100000090005050
S113390000100250014B1880704700BF462B002066
S1133910014B1880704700BF442B00204FF4001265
S113392008B5184B5A660223174A5360936813F478
S11339308033FBD1012822D1FEF746FE134B984277
S113394015D003F5122303F5F863984213D0104BF6
S113395000EB8002400AB3FBF0F3520A0A49CA6240
S11339600B6301234B620022074B5A6008BD45F6E6
S11339707A13084AF2E745F61A03074AEEE7536258
S1133980F1E700BF009000500040025000F04902EF
S113399064666666D8B80500BBCF0500B0F5207F25
S11339A010B565D00ED8B0F5007F4FD003D800B362
S11339B0B0F5C07F1DD040F21631BDE81040344848
S11339C004F00FBEB0F5607FF5D14C1E012C06D972
S11339D0042904D040F2F7212D4804F002FE2D4AB8
S11339E0D2F8803023F0300343EA0413C2F8803065
S11339F010BD4C1E012C0AD9102903D8264BCB40EC
S1133A00DB0704D440F2C921214804F0EAFD04F0A4
S1133A10ADFE04F0B9FE4FF48031204B1D4A196706
S1133A20136F23F4704343EA04331367FEF7B6FDC0
S1133A300446FFF7F7F9C0F10201204604F09EFEA8
S1133A4000F03EF8BDE81040FFF72ABD4C1E1F2CC5
S1133A5004D940F20A310E4804F0C3FD0D4AD2F8ED
S1133A60903023F0F85343EA0463C2F89030BFE780
S1133A704C1E012C04D94FF44471054804F0B1FDE7
S1133A80044A136F23F4806343EA84231367AFE784
S1133A908EA1000000800050100101000090005031
S1133AA008B50121022000F0B5F804F05FFE04F02F
S1133AB06BFE4FF48032014B1A6708BD0090005032
S1133AC008B54FF4C070FFF71FFCBDE80840044977
S1133AD0884294BF012102214FF42070FFF75EBF9A
S1133AE080F0FA022DE9F0410546FFF7A7F9431EDD
S1133AF00333044604D940F6CF113B4804F071FD6A
S1133B004FF4C022394B5A6603F598335A68012A98
S1133B1004D137494A609A699207FCD18020FFF7A3
S1133B20CFFC052807D104F021FE04F02DFE4FF44C
S1133B3080322E4B1A672F4B24F040749D4239D0AB
S1133B402D4B9D4239D0FEF703FD8542064603D92D
S1133B500121284600F0B2F8284FFB6813F0060F45
S1133B60FBD1D7F80880BC60BB68634013F4F81F2E
S1133B7026D12846FEF7F2FC8020FFF7A1FC052899
S1133B8014D1FEF70BFDA842044604D940F62821BF
S1133B90154804F026FDFFF745F9C0F1020120465F
S1133BA004F0ECFDFFF78CFFFFF77AFCAE4213D272
S1133BB0BDE8F08144F00074C5E744F08074C2E7C6
S1133BC040F61721084804F00CFD8020C7F808804F
S1133BD0FFF776FC052805D0BDE8F041012100205F
S1133BE000F06CB83546CCE78EA100000090005080
S1133BF000E0015040420F0080841E00000001508C
S1133C00034A0179D36E23F030030B43D366704724
S1133C1000400050F8B50446244BD3F88420D00665
S1133C20FBD4D3F88430C3F381139C423CD0FEF719
S1133C309BFC012C05460BD11D4B984204D940F244
S1133C40B7711C4804F0CDFC0121284604F096FD10
S1133C5004F0C8FC4FF00072174B07465A66204622
S1133C6004F0AEFD4FF48063104E621E9340336740
S1133C70736E9A0103D4D6F884309B060AD538466D
S1133C8004F0B4FC022C0FD12846BDE8F840002112
S1133C9004F074BDD6F884309906E9D540F2C571B4
S1133CA0044804F09EFCE3E7F8BD00BF0040005068
S1133CB0005A6202C5A100000060005010B50C4615
S1133CC008B9FEF751FC074B21461B783BB1064B64
S1133CD0984204D80120BDE81040FFF79BBF0220A2
S1133CE0F9E700BF351F0020005A62024FF000427E
S1133CF038B5264B26495A6601224A604AF6CD3128
S1133D0003F50B235D6C1964154030BB9968C90732
S1133D100BD4002401221F4B5A6015B11E4B1F4ABD
S1133D201A6404F04EFD204638BD1A498A601C4AC4
S1133D30D96ACC0705D4904201D10724EAE70130BF
S1133D40F6E79042E5D1F8E70132DC6A14F00804A2
S1133D5006D08A42F8D10724DFE700221049F4E7AD
S1133D608A42F8D020220B4B0B495A620122A3F558
S1133D7080539A6023460A4A486A800603D49342D1
S1133D80E9D00133F8E79342C7D1E4E7009000504B
S1133D900050095000600950004009503254FFFFA0
S1133DA040420F004FF0004238B5174B174C5A668B
S1133DB0012203F50C235A604AF6CD33656C236463
S1133DC0437893401343124AD363C3788178A2683B
S1133DD09B0043EA011322F074021343A3600279A7
S1133DE0837943EA022323614279C37943EA0223B4
S1133DF063610078FFF77AFFEB0744BF054B236448
S1133E0004F0DFFC012038BD009000500040095050
S1133E10004000503254FFFF10B5044604F0D6FCB5
S1133E20002341F202020849E360A360226104F521
S1133E300052E3616361A36123626362E362A3648A
S1133E405164A36210BD00BF7F370C0138B5154B18
S1133E50044698420D4604D040F26911124804F019
S1133E60C0FB25B92046BDE8384004F0AFBC0122B0
S1133E7004F580535A6040F2FF71204605F00F02AA
S1133E8004F0A0FC2263782104F09CFC05F00103FB
S1133E906A0748BF43F00203226C02F003029A420D
S1133EA0FAD138BD0000035AFCA10000F8B506465B
S1133EB00C46154622B940F22721434804F091FBF1
S1133EC0424B9E4202D184B938240AE040F22A21AE
S1133ED03D4804F086FB44B940F279313A4804F095
S1133EE080FB2046FFF710FA04467368012B04D0C8
S1133EF04FF41771344804F074FBB36803F0E00323
S1133F00402B42D009D893B1202B1AD040F29E21E5
S1133F10BDE8F8402C4804F064BB602B42D0802BF1
S1133F20F4D105EB4503A34247D801230DE0B5EBDB
S1133F30141F04D94FF42171234804F052FB1023B9
S1133F4003E0B5EBD40F1AD808236B436401B4FB28
S1133F50F3F41F4F203CB7EBC40F4FEAC40504D25F
S1133F6040F2A921184804F03CFB30463D400121B1
S1133F7004F028FCB562BDE8F84004F023BC40F22C
S1133F808921114804F02DFBDEE70623B4FBF3F38B
S1133F90AB4201D30623D8E740F28E210A4804F04D
S1133FA020FBF7E7B5EB940F01D80423CDE740F2EB
S1133FB09321054804F015FBF7E74FF426710248F6
S1133FC004F00FFBB1E700BFFCA100000000035A9E
S1133FD0F8FF7F00436870B504460D4616461BB1D2
S1133FE040F2FF7104F0EEFB2046FFF715FFE9896C
S1133FF06B7B22690B43298A22F44C520B4322F037
S1134000030213432361A2682B7B297E22F08042A2
S113401022F0E2020B4313436A691343A360AB68C3
S11340201BB9A36843F00043A360EB69002B57D08E
S1134030987A1A7A4004A16840EA82503F4A0A40BA
S113404010439A8802F4C04210435A7840EA82002E
S11340505A7B40EAC2009A7B40EA02109A7840EA0E
S11340608220A060E168D3E9042021F4D81121F46E
S1134070C06102430A43997942EA8122D97942EA2A
S11340804122E2601A78012A05D1E26842F0040272
S1134090E2602B4A06E0032A3ED1E26842F00402C1
S11340A0E260284A0121C2F8C0105A7A04F580510E
S11340B00A621AB1E26842F40062E260DA7A4AB152
S11340C0E268214942F40042E2601A7B02F00F02E6
S11340D0C1F88020E269DB7B22F003021343E36131
S11340E036B196F8203004F58051CBB101238B61B1
S11340F005212046FFF7AAFEAA681AB1204669687E
S1134100FFF7D4FE20462978FFF7A0FE236CDB439B
S113411013F4405FFAD170BD023A012AC1D9B8E75D
S1134120626996F8223096F8210022F009020343CE
S1134130134343F001034B61DAE700BFE39BBDFF88
S113414000E4035000D403500090035038B5294BC9
S1134150054698420C463FD119B98C21264804F0F3
S113416040FA3820FFF7ACF9083808283DD8234B2B
S11341700341DB0739D4637B032B03D9AD211E48EC
S113418004F02FFA237B802B03D0AF211A4804F0CC
S113419028FA6369B3F1804F03D0B121164804F0C3
S11341A020FA238A23F400539BB2B3F5805F03D033
S11341B0B321114804F015FAA368013BB3F5165F67
S11341C003D3B5210C4804F00CFA21462846BDE877
S11341D038400022FFF7FEBE8A21074804F001FAA6
S11341E01CB98C21044804F0FCF99E21024804F017
S11341F0F8F9C0E70000035AFCA10000F4FEFFFF39
S113420038B5114B054698420C4603D070210F482F
S113421004F0E7F91CB972210C4804F0E2F9237B9D
S1134220802B03D17621094804F0DBF9637B032B4F
S113423003D97921054804F0D4F921462846BDE87C
S113424038400022FFF7C6BE0000035AFCA100005C
S11342501F2970B504460D46164603D99121064818
S113426004F0BFF92EB104F580540123AB40236060
S113427070BD04F50054F8E736A20000032838B5F1
S113428004460D4605D80B4B33F81030CB40DB0702
S113429004D440F22D41084804F0A3F9302201234C
S11342A0544341F2100204F1A044AB4004F57034CD
S11342B0A35038BDDEA20000C8A00000032838B512
S11342C004460D4605D80B4B33F81030CB40DB07C2
S11342D004D440F2FE31084804F083F9302201236B
S11342E0544342F2100204F1A044AB4004F570348C
S11342F0A35038BDDEA20000C8A000002DE9F84F8D
S1134300032807460E46144698469DF828A09DF8B3
S11343102C9005D8274B33F81030CB40DB0703D45F
S1134320BF21254804F05DF986EA0403032B03D971
S1134330C121214804F055F9072C4FF0030506F07C
S1134340030625D84FEA840B05FA0BF529461B48CA
S113435007FA0BF204F05CFA2946194806FA0BF244
S113436004F056FA424621461648FFF771FF5246BA
S113437021461548FFF76CFF0123144AA340C2F8F5
S1134380203421464A46BDE8F84F1148FFF760BF84
S1134390A4F1080B4FEA8B0B05FA0BF529460D48DF
S11343A007FA0BF204F034FA29460B4806FA0BF22A
S11343B0D6E700BFDEA20000A6A2000000C403509E
S11343C008C4035010C4035014C4035000E0035045
S11343D024C4035004C403500CC403500328F8B588
S11343E004460D4616461F4605D81C4B33F81030BC
S11343F0CB40DB0704D44FF4B071194804F0F1F852
S113440026B129462046CFB1FFF738FF04EB440319
S1134410072D4FF00F014FEA031312D8A80006FA34
S113442000F281400F48184404F0F2F9AEB929466D
S1134430204677B1BDE8F840FFF720BFFFF73EFF05
S1134440E4E7A5F10800800006FA00F2814006487E
S1134450E9E7BDE8F840FFF731BFF8BDDEA2000090
S1134460A6A2000004C003500CC0035070B5194E3E
S1134470054630420C4604D040F2AB11164804F015
S1134480B0F8344204D04FF4D771134804F0A9F8BB
S1134490124B2C40D3F8302422EA0502C3F830240E
S11344A0D3F830241443C3F83044D3F82C242A43DB
S11344B0C3F82C240A4AD36E03F03003202B1FBF09
S11344C0D36E23F0300343F01003D366054BC3F8D7
S11344D0205470BDFFFF00F0A6A2000000C00350EE
S11344E00040005000E003502DE9F0410328054648
S11344F00F4614461E469DF8188005D80F4B33F816
S11345001030CB40DB0704D44FF49A710C4804F00C
S113451068F803223946284686F00103FFF75EFF58
S11345200120103406FA04F1A040FFF79FFF424631
S11345302146BDE8F0410348FFF78ABEDEA2000031
S1134540A6A2000024C4035010B5152000F012FDEB
S11345500024FF22064B21465C6520209A625C60A1
S1134560FEF7A8FE2146BDE810402120FEF7A2BEBA
S113457000000450072838B504460D4603DD7721B2
S1134580084804F02EF81F2C03D99121064804F0A2
S113459028F8064A064B002D08BF13460122A24004
S11345A01A6038BDE6A2000036A200004010045094
S11345B04020045010B5044618B991211F4804F056
S11345C010F823781B0613F0604F03D092211B4888
S11345D004F007F8E3780F2B03D9A321174804F05C
S11345E000F801212020FEF765FE01212120FEF7BD
S11345F061FE0122124B15205A60227812069A603D
S11346006178A27842EA01429A61FF229A6200220A
S11346109A631A644FF000425A654FF0FF3203F573
S113462000531A6500F0F6FC1520E17800F000FD57
S1134630BDE81040152000F0BBBC00BFE6A200009E
S1134640000004502DE9F0410126C3B207280546B5
S11346500C46174606FA03F603DDEC21374803F04F
S1134660C0FF1CB9ED21354803F0BBFF236823F4D8
S11346707C1323F00F031BB1F021304803F0B1FF8A
S1134680A37A1B0413F47C0F04D040F209112B48C5
S113469003F0A7FFE37A1B0513F07E6F04D040F20A
S11346A00B11264803F09DFF237B5B0513F0FE5F8F
S11346B004D040F20D11214803F093FF204BDFF8A2
S11346C088801E65226803F5005343F825203022B4
S11346D002FB0585637B27F003072B66E37AA27A46
S11346E01B0543EA0243227B43EA4253EB652F67EF
S11346F003F07FFF134B5E65237A23B1D8F8403073
S11347003343C8F84030637A23B1D8F838303343A0
S1134710C8F838302279A37943EA0243084A9361FE
S11347206179E37943EA014306498B61064B566399
S11347309E64BDE8F04103F062BF00BFE6A2000042
S113474000200450001004500000045010B501244F
S1134750C3B2072804FA03F404DD40F297110748B2
S113476003F03FFF03F045FF054B5A6D22EA0402B4
S11347705A659C62BDE8104003F041BFE6A2000008
S11347800000045010B50124C3B2072804FA03F44E
S113479004DD40F2B5110A4803F023FF03F029FFBA
S11347A0084BDA6A224208D15B6B9C430CBF01249C
S11347B0002403F024FF204610BD0024F9E700BFC5
S11347C0E6A20000000004504FF40032054B9A6644
S11347D041F6713203F51C33DA63012203F5005309
S11347E0DA60704700900050022838B505460C4640
S11347F003D94C210C4803F0F4FEE3786278217865
S11348005B0143EA820322790B4343EA02130C223D
S11348106A4302F1B0421363012902BFA278034B39
S113482043F8252038BD00BF55A30000E88003509D
S113483008B54FF0B0435A686AB958B15B680BB118
S113484003F0F6FF01210D4B596003F0F1FF4FF027
S1134850B043D96008BD5B680BB103F0E9FF0028E1
S1134860F0D103F0E5FF4FF0B0430222DA6003F029
S1134870DFFF0122024B5A60ECE700BF0010005832
S1134880002000584FF0B0414B6810B50BB103F055
S1134890CFFF01220B4BC4785A608378934043EADC
S11348A0840344782343047943EA0413447943EAB0
S11348B0C4038B60044B5A600378C3F10203CB60DA
S11348C010BD00BF0020005800100058024B1868AB
S11348D0C0F30740704700BF0080E00F70B5064684
S11348E00C46154622B940F28E210C4803F079FE9D
S11348F024B94FF42070FEF707FD04466D00013C17
S1134900B4FBF5F4064B250213EA042304D040F269
S1134910B321024803F065FEF56170BD8DA300006C
S1134920070080FF174B10B59842044608D003F5E2
S11349308043984204D040F24241134803F051FEB0
S1134940012204F580535A6040F6AA6341F205023D
S1134950636100230D49A360E365E26004F500523E
S11349602361E361E36491640649A3658C4203D146
S113497023650023636502E005498C42F8D00123D6
S1134980536010BD00C005508DA30000FFFF01005F
S11349900000065038B52F4B044698420D4608D007
S11349A003F58043984204D040F269312A4803F069
S11349B018FE2046FFF7B6FF012204F580535A6023
S11349C02B8AA26843F001031343AA7B43EA8223A0
S11349D0A360A3682A7D43EA4273A360AB7C5BB106
S11349E01C4AEB7C94422DD1A2F51032C2F88C31D2
S11349F0E36D43F08003E3652B7B2046D5E9011288
S1134A0043F48053E360FFF769FF6B7B0BB1102322
S1134A1063616B7D1BB1A36843F48033A360AB7DFA
S1134A201BB1A36843F40043A360EB7D2A7E1B07FC
S1134A30120503F0E04302F4E0021343A3652B786C
S1134A40636138BD054A944204BFA2F52032C2F81E
S1134A509C31CDE700C005508DA300000000065036
S1134A600123054A411100F01F00834052F8210040
S1134A70034342F821307047401D0020044B1B685B
S1134A801BB1044B0360002070470120704700BF36
S1134A90501D0020B01E002070B50D4C246884B158
S1134AA00C4C85182688B5420DDC6688CD18B542B5
S1134AB009DC52B14BB1A0800020E18022816381E6
S1134AC070BD0120FCE70420FAE70520F8E700BFE9
S1134AD0501D0020B01E00202DE9F74F9946494B88
S1134AE01B68002B00F08A80B9F1000718BF01276A
S1134AF04FF0010BDFF814A17F42BAF80650BAF860
S1134B000A300D9E2B449BB20D440093FFB2ADB20C
S1134B101EB9304603B0BDE8F08F009AABB29A429A
S1134B206ED9BAF80840BAF80430241AB44228BF3F
S1134B3034461844344B361B80B203EB0512B9F1EA
S1134B40000F0AD0072C26D80444A04216D32846C6
S1134B50FFF786FF01350020DAE7072C1BD8044451
S1134B60A042F4D2C108535C00F0070C0BFA0CFC11
S1134B7023EA0C030130535480B2F1E7C10812F860
S1134B8001C000F007030BFA03F343EA0C030130FE
S1134B90535480B2D9E74FEAD00C02EBD00810F09E
S1134BA007000BD1E20839464046019204F0B6FCF6
S1134BB014F00704019ACAD0904412E00BFA00F3EF
S1134BC012F80CE0DBB2591E5B420EEA01013B40D5
S1134BD008381943044402F80C10E20808F10108EB
S1134BE0E1D10BFA04F498F80030E4B26242013CDB
S1134BF013403C40234388F80030A8E7012688E7A7
S1134C00042686E7501D0020361F0020B01E002019
S1134C1037B5114D2B68EBB9FDF77CFB044610B199
S1134C20012003B030BDFDF769FB28600028F7D0F0
S1134C3002884188094B20461A801A814A435980C8
S1134C4059819C80DC802146CDE9004223462246DE
S1134C50FFF742FF0020E4E7501D0020B01E0020B3
S1134C602DE9F843002301251A461A4FDFF86C801A
S1134C703C68DFF86490D8F80000D61841888E426A
S1134C8007D3FBB910220021124804F047FC00208E
S1134C9012E0E10708D50133D118C9060ABF57F855
S1134CA0254064080135E6E753B109EB0211FDF72D
S1134CB0CDFA034610B10720BDE8F883721CEBE778
S1134CC00132E9E7044901EB0211FDF7BFFA0028BC
S1134CD0D8D0F0E7401D0020361F0020501D0020D2
S1134CE030B5054687B000B300226FF07F43C0E9BA
S1134CF0012301A8FFF7C2FE044698B9019BCDE940
S1134D0002001A882B605B88013A013B284602A9FD
S1134D100492059303F0DEFD044618B928460449BD
S1134D2004F01CF8204607B030BD0524FAE700BFA4
S1134D30F8A6000070B50D46E8B1036813F4E07FEF
S1134D4003F03F06C3F3821210D0012A13D10B4C97
S1134D509B0603D591210A4803F043FC45B104F5B1
S1134D60805401230020B340236070BD054CEFE75D
S1134D7004F50054F5E70E20F7E700BF6880005003
S1134D8036A200006480005030B58BB06D46624C92
S1134D900FCC0FC554F8043B68462B604FF07E637C
S1134DA093F89C306D46FF2B08BF25238DF8013006
S1134DB0FEF746FD3220FEF7A5FD0FCC0FC50FCC44
S1134DC00FC594E8030085E80300544BD3F84C2145
S1134DD0110340F18B80A3F5FE431C884FF6FF734B
S1134DE09C4208BF78248DF81940FEF723FD044443
S1134DF084F308044A488DF81840FDF7EBFB684635
S1134E00FEF72AFC3220FEF783FD4648FEF76AFED1
S1134E10454C01213520FEF74DFA0020FEF77EFDBA
S1134E20FEF73EFE236F002023F0070343F0030345
S1134E302367236F23F4744343F48063236703F0ED
S1134E40A8FC3A4BD3F8FC20D20153D4D4F88030D8
S1134E50C4F88030344BD3F8202122F0030242F00E
S1134E600202C3F82021D3F8242122F0070242F0E1
S1134E700202C3F82421D3F8802122F0030242F075
S1134E800102C3F88021D3F8402122F0030242F04A
S1134E900202C3F84021D3F8602122F0030242F059
S1134EA00202C3F86021D3F8402222F0030242F048
S1134EB00202C3F84022D3F8002222F0070242F093
S1134EC00202C3F80022D3F8202222F0030242F0A7
S1134ED00102C3F82022FEF7A7FB4FF0E0220020D6
S1134EE0136963F0040313610BB030BDD3F8504170
S1134EF0E4B278E7D3F8FC2022F08072C3F8FC20F7
S1134F00D4F88020C4F88020D3F8FC2042F08072CA
S1134F10C3F8FC209EE700BF28AA00000080E00F31
S1134F2000F0490200B4C4040080005000ED00E029
S1134F3007B56B46054A1068516803C36846FEF717
S1134F4031FF002003B05DF804FB00BF64AA000039
S1134F5013B50024064A6846536F43F001035367B0
S1134F6000948DF80440FEF74BFE204602B010BDBD
S1134F7000400050402810B504460DD801220A49CB
S1134F80630904F01F04A240203341F82320BFF337
S1134F904F8FBFF36F8F10BD40F20911034803F028
S1134FA020FB002CF7DBE9E700E100E094AA000015
S1134FB0402810B5044608D801236109074A04F0C3
S1134FC01F04A34042F8213010BD4FF48A710448F5
S1134FD003F007FB002CF7DBEEE700BF00E100E085
S1134FE094AA00003F2810B5044604D940F21F11CA
S1134FF0064803F0F6FA064B621153F8220004F057
S11350001F04E040C04300F0010010BD94AA00005A
S113501000E100E0002808DB01224309034900F015
S11350201F008240603341F82320704700E100E014
S113503038B500F11003502B04460D4604D94FF443
S1135040E1710D4803F0CDFA1E2D04D940F2C311CD
S1135050094803F0C6FA002CACBF04F16044074BC6
S11350604FEA0515EDB2ABBF04F5614404F00F043B
S113507084F800531D5538BD94AA000014ED00E0D7
S113508010B5044603F0AEFA024B1C6003F0AEFA0E
S1135090002010BD541D002010B503F0A3FA034BEB
S11350A01C6803F0A3FA204610BD00BF541D002065
S11350B02DE9F0471D46136894B0D3F80080D37BE4
S11350C081468A4614460CAE13B37C4F0FCF0FC6ED
S11350D097E80F0086E80F0006AE1822002130463C
S11350E004F01CFAA3680E93237B012B12D0022B2D
S11350F013D01BB1DB21724803F073FA0023ADF81F
S11351003E30637B032B1DD8DFE803F00A2320190C
S11351106C4FDBE74FF40073F1E74FF44073EEE7B5
S11351200023ADF8403001238DF81E30A37B139685
S1135130042B11D8DFE803F01516161615004FF4EA
S11351404053EEE7ED215E4803F04BFA4FF48053F1
S1135150E7E74FF40053E4E74FF48071584803F055
S113516040FA00238DF81830E37B5246C3F1020362
S1135170DBB2CDE90333544B29460293534B4846E3
S1135180019300230093524B00F0ACFA064600282A
S113519040F08C8023694F48EB63E37D85F843300E
S11351A0A37D85F84230637D85F84130237D85F801
S11351B04030637E85F84530237E85F84430E37EB5
S11351C085F84730A37E85F846302368AB6303F047
S11351D00EFE01230422617D207DFFF7FFF80123E9
S11351E0E17D0222A07DFFF7F9F885F84860206987
S11351F003F0FDFDE37B40460CA9002B5AD0FEF7DB
S1135200FFFF95F8483043F0040385F84830022244
S1135210314BC3F8C020607D217D41EA0041C3F8D1
S1135220D010E07DA17D41EA0041C3F8CC10A37BFE
S113523003F0FD03012B0AD195F8483043F0010334
S113524085F84830617E0023207EFFF7C7F8A37BF2
S1135250023B012B0BD895F84830042243F002039B
S113526085F84830E17E0023A07EFFF7B7F895F873
S11352704830DB070FD5637E227E42EA0342174B98
S1135280C3F8C4200122C3F8C020E17EA27E42EA12
S11352900142C3F8C820042308F50052536408F5FA
S11352A08052052140469364FEF7D0FD304614B089
S11352B0BDE8F087FEF74AFFA9E700BF44AB000052
S11352C0F5AA000064AB00000D8F0000858F00007C
S11352D0B18F000074AA000000C4035000D403502E
S11352E010B50020144603F0E8FD022804D018B1DC
S11352F0C321024803F075F9204610BD84AB0000B9
S1135300302238B5037A0446534303F1A04303F52E
S11353108023DD6ED0E9032313449D4201D8AA42C1
S113532004D94FF44171054803F05BF9D4E9030350
S113533003449D4218BF284638BD00BFDAAB0000C5
S113534030B51446054687B01046FFF7D9FF6369A8
S1135350024683423CBFD4E903315B181B1AABB14C
S11353601249049403910021CDE9013101230093F2
S11353702846D4E9001303F0C7F920B14FF437717C
S11353800B4803F02EF9002007B030BD01226276ED
S113539094F82D20002AF6D084F835301321E369DF
S11353A0204698472046636A9847ECE7415300003B
S11353B0DAAB000070B504460568FFF76DFE844261
S11353C002D10020FFF75CFE95F93600FFF722FEBC
S11353D095F93600FFF7CEFD287AFDF7C3FB20B11F
S11353E04FF4F371104803F0FCF8287AFDF720FB22
S11353F020B14FF4F5710C4803F0F3F8FDF7F6FA19
S113540038B10A4B984204D04FF4F771064803F0C0
S1135410E8F800232846C4E90033C4E90433A36050
S1135420AB6ABDE870401847DAAB0000058000F0B5
S11354302DE9F04788B004460F461646984603F017
S1135440D8F88146002E00F0AD80237E03F0FF02E1
S1135450002B00F0E0802046FFF752FF636982468C
S1135460984206D1637E23B940F28B316B4803F036
S1135470B8F86569AA459DBFD4E903329B185D1B42
S1135480AAEB0505B54228BF354603F0B2F894F8F7
S11354902D308246002B40F096802A4638466169BA
S11354A004F055F863692E462B4463612CE060696F
S11354B0037803F0FD01112940F08280216B8842BA
S11354C005D1A3F111014B424B4184F83430013E24
S11354D06369216B01328B4203F1010308BF23632B
S11354E063619542E3D1D4E90323216B13449942C8
S11354F008BF2263216B8A4201D88B4204D84FF43F
S11355007071464803F06DF8D4E9032361691344CC
S1135510994208BF626161698A4201D88B4204D80A
S11355204FF474713D4803F05CF80023207A6376ED
S1135530FDF7D8FA20B140F21D31384803F051F894
S11355402046FFF7DDFE636983423FD10023E5680F
S1135550237694F82D30656103B125632046636A90
S113556098472F4B049403930023029323692A46FC
S113557001930123009363682168207A03F0C4F83F
S113558020B140F23931254803F02BF8207AFDF799
S1135590C9FA20B140F25D31204803F022F85046A8
S11355A003F02DF84846C8F8006003F028F8D8F84E
S11355B00030002B0CBF1B20002008B0BDE8F08792
S11355C007F8013B84E72E4600228AE70123207A6C
S11355D023760DF11E01FDF70DFB20B14FF453713D
S11355E00E4802F0FEFF9DF81E30207A002BCDD02D
S11355F00DF11F01FDF7D6FA20B140F252310748F0
S113560002F0EFFF9DF81F10207A0029BED1224638
S1135610FFF796FEBAE71646C4E700BFDAAB000010
S1135620415300002DE9F84304460D4690F82C80C0
S1135630DFF8AC908E18AE4228D094F82D3083B1A8
S113564002F0D7FF237E07461BBB226B63699A4295
S113565004D040F20521484602F0C3FF384602F068
S1135660CEFF94F83430002BE5D0B8F1000F06D00B
S11356702B780A2B03D10D212046E3699847204655
S1135680E36915F8011B98470028D4D00020BDE831
S1135690F8832046FFF734FEE1680138884238BFBA
S11356A02069D4F830C03CBF00F1FF3040180346F5
S11356B09C450BD013F80129112A01D0132A07D1D4
S11356C0A2F111035A425A4184F834202063C5E7F9
S11356D0994282BF236903F1FF335B18E8E700BFF7
S11356E0DAAB0000F0B50C460646154687B0382202
S11356F0002120461F4603F011FF95E80300002314
S11357002A692376EB6884E80300C4E904232A7D2C
S1135710E36084F82C20AA7D2363012384F83430C9
S113572084F835300C9B84F82D2023620D9BE761AF
S113573063620E9BA3622B7A84F836301C4B346070
S113574073601C4BB3601C4B33611C4B73611C4B6B
S1135750F360FDF793F930B11A4B984203D010244B
S1135760204607B0F0BD002104F10800FDF70EF952
S11357700028F4D1144B0494CDE902032369019366
S1135780012300936368E2682168207A02F0BCFF79
S113579004460028E3D195F90800FFF73BFC95F98E
S11357A00800FFF705FC3046FFF76AFCD8E700BFA6
S11357B025560000315400007190000077900000DD
S11357C0B5530000038000F0415300000346054A2E
S11357D00549106803448B428CBF4FF0FF301360BF
S11357E0704700BF682900200080002030B50E4CAF
S11357F0416123688BB9206083600DE0891A9A683F
S11358001D4641616AB113465A698A42F6D935B1D7
S1135810A860521A83605A6130BD0025F4E7206005
S1135820F7E798608260F7E7601D002038B503F061
S113583043FC0025084B094C1A682368C31A2AB193
S113584023B15169994203D3C91A5161206038BD0B
S113585055615B1A9268F2E7601D00205C1D002010
S113586038B5134D2B685B6993B1124A0220146852
S11358701C4403F028FC204600F0DAF900230E490A
S11358802A680B70D088800709D501230B7038BDB6
S1135890022003F018FC022000F014FAEEE79268EC
S11358A0002AF4D050690344012BEBD9EFE700BF81
S11358B0601D00205C1D00203727002070B51646AF
S11358C09DF81420C0E903360271049ABDF818301B
S11358D00260002204460D468260C380EEB903F0E4
S11358E0EBFB2844A0619DB12E4602F07BFE0546E9
S11358F0FFF79CFF31462046FFF778FF104B1B68EB
S1135900A34201D1FFF7ACFF284602F06FFE02E08C
S1135910E36865617BB9002070BD03F0CDFB3044C2
S1135920A061002DE0D1E3686561002BDDD0204645
S113593021689847D9E7204621689847EBE700BFDC
S1135940601D002000220C490B687BB183420AD100
S113595083687AB1936083681BB15A6941690A44C8
S11359605A61002070471A469B68EEE70028EFD082
S1135970022070470B60EEE7601D002070B502F056
S113598038FE144E05463478FCB9134B1C60134B97
S11359901C60134B1C8000F009F9012003F093FBF9
S11359A000F0B2F90F4B0246186020B9284602F005
S11359B026FE232070BD234640F2E7310A4800F05A
S11359C023FC0A4B186001233370284602F017FEAB
S11359D00020EFE738270020601D00205C1D002018
S11359E0BC1E0020641D002018FCFFFF581D002071
S11359F070B5044640B302F0F5FD144E0546FFF7BA
S1135A0015FF3068A04209D02046FFF79BFF0446EB
S1135A10B0B1284602F0EAFD204670BDFFF792FFC0
S1135A2004460028F5D133683BB9022000F032F96E
S1135A30284602F0DBFD0024EEE7FFF711FFF7E74D
S1135A403368002BF4D1F0E72224E5E7601D002041
S1135A50014B1868704700BF641D0020C2072DE980
S1135A60F04704460BD54D4A138801339BB213808B
S1135A70FFF7DCFE4A4B1B680BB1FFF7F1FEA307EF
S1135A8040F18A8002F0B5FD4FF0000905464E460C
S1135A90FFF7CCFEC846424F3C680CB163698BB13A
S1135AA00022404B012E1A7003D119F0020F18BFC7
S1135AB01E70002C6CD0FFF7D3FE2846BDE8F047DB
S1135AC002F09DBD23465A693AB91A792179914267
S1135AD088BF1C469B68002BF5D1284602F08FFD39
S1135AE02569DDB103F0E8FAA269A0EB02094FEAE7
S1135AF0E9734D4578EB030311DA23691344A36179
S1135B00E368B4F80690013613B12046216898473B
S1135B1002F06FFD0546FFF789FEBDE7A94602F0D6
S1135B2068FD82462046FFF70DFF504602F067FDF0
S1135B302369002BE4D0B5EB09054FEAE97363EB65
S1135B404303002B04DA40F23451174802F049FDB4
S1135B50A38B33B1E28B13449BB2B3F57A7F0FD29C
S1135B60E38302F046FD814629462046FFF73EFEC8
S1135B70A369226948461344A36102F040FDBFE7CC
S1135B80A3F57A73E383A369013D013BA361E8E7CD
S1135B90022000F07FF890E7BDE8F087BC1E0020EB
S1135BA0601D00203627002026AC00001FB500240D
S1135BB01C4B18689A880290D3F806009B7A0090D0
S1135BC01948ADF80C208DF8043003F010F98DF865
S1135BD0084003F06FFA8DF80C0002A8FEF752FE9D
S1135BE0694601208DF80040FEF7FEFD4FF0B042FB
S1135BF040F2FF31936923F47F7323F0030393612D
S1135C000A4B5961936A13F00803FBD11362012014
S1135C10FEF70EFE0C20FFF7FDF90C20FFF7C8F984
S1135C2004B010BD71AC000070AA00000020005840
S1135C3010B5044602F0D6FC4FF0B042936A19073F
S1135C40FCD4136A116C5269520604D4CA1A032A8A
S1135C5001D88B420ED1E21A022A98BFDC1CB4F19F
S1135C60FF3F38BF013C4FF0B0431C649A6942F0D7
S1135C7040029A6102F0BAFC054A13783BB14FF036
S1135C80B041CB6B43F00203CB630023137010BD10
S1135C902D2C0020820700F001030AD50121084AB7
S1135CA043F0400311704FF0B041CA6B22F003027D
S1135CB0CA634FF0B0418A6922EA03038B617047DB
S1135CC02D2C0020830742BF4022014B5A617047AC
S1135CD00010005810B502F08CFC4FF0B04304469D
S1135CE05B695A06074A03F0010003F0510348BFF9
